PLF            DC031422130000000708028
000AA ABE  ABQ  G7AZZRI1220314999999J11Z03041ATP 00000063721USD26M     30000     00100004X               AA0782AA1950000013601298078281950
000AA ABE  ABQ  G7AZZRU1220314999999M11Z03041ATP 00000030326USD26M     20000     00100005X        X      AA1778AA1950000013601298177881950
000AA ABE  ABQ  GVAZZRU1220314999999M11Z03041ATP 00000029302USD26M     20000     00300003         X      AA9679AA1950000013601297967981950
000AA ABE  ABQ  K0AZZRD1220314220314J11Z03041ATP 00000089209USD26M     10000     00200002                AA1303AA1950000013601298130381950
000AA ABE  ABQ  L3AZZRR1220314220314J11Z03041ATP 00000077116USD26M     10000     00500002                AA1303AA1950000013601298130381950
000AA ABE  ABQ  M3AZZRD1220314999999J11Z03041ATP 00000082698USD26M     30000     00100005 X              AA1303AA1950000013601298130381950
000AA ABE  ABQ  M8AZZRD1220314220314J11Z03041ATP 00000081302USD26M     10000     00100002                AA1303AA1950000013601298130381950
000AA ABE  ABQ  V7AZZRR1220314999999J11Z03041ATP 00000068279USD26M     30000     00300010X               AA1364AA1950000013601298136481950